{
  "_format": "hh-sol-artifact-1",
  "contractName": "VotingToken",
  "sourceName": "contracts/VotingToken.sol",
  "abi": [
    {
      "inputs": [
        {
          "internalType": "address[]",
          "name": "_voters_addresses",
          "type": "address[]"
        },
        {
          "internalType": "address[]",
          "name": "_candidates_addresses",
          "type": "address[]"
        },
        {
          "internalType": "uint256",
          "name": "_durationInMinutes",
          "type": "uint256"
        }
      ],
      "stateMutability": "nonpayable",
      "type": "constructor"
    },
    {
      "inputs": [
        {
          "internalType": "address",
          "name": "spender",
          "type": "address"
        },
        {
          "internalType": "uint256",
          "name": "allowance",
          "type": "uint256"
        },
        {
          "internalType": "uint256",
          "name": "needed",
          "type": "uint256"
        }
      ],
      "name": "ERC20InsufficientAllowance",
      "type": "error"
    },
    {
      "inputs": [
        {
          "internalType": "address",
          "name": "sender",
          "type": "address"
        },
        {
          "internalType": "uint256",
          "name": "balance",
          "type": "uint256"
        },
        {
          "internalType": "uint256",
          "name": "needed",
          "type": "uint256"
        }
      ],
      "name": "ERC20InsufficientBalance",
      "type": "error"
    },
    {
      "inputs": [
        {
          "internalType": "address",
          "name": "approver",
          "type": "address"
        }
      ],
      "name": "ERC20InvalidApprover",
      "type": "error"
    },
    {
      "inputs": [
        {
          "internalType": "address",
          "name": "receiver",
          "type": "address"
        }
      ],
      "name": "ERC20InvalidReceiver",
      "type": "error"
    },
    {
      "inputs": [
        {
          "internalType": "address",
          "name": "sender",
          "type": "address"
        }
      ],
      "name": "ERC20InvalidSender",
      "type": "error"
    },
    {
      "inputs": [
        {
          "internalType": "address",
          "name": "spender",
          "type": "address"
        }
      ],
      "name": "ERC20InvalidSpender",
      "type": "error"
    },
    {
      "anonymous": false,
      "inputs": [
        {
          "indexed": true,
          "internalType": "address",
          "name": "owner",
          "type": "address"
        },
        {
          "indexed": true,
          "internalType": "address",
          "name": "spender",
          "type": "address"
        },
        {
          "indexed": false,
          "internalType": "uint256",
          "name": "value",
          "type": "uint256"
        }
      ],
      "name": "Approval",
      "type": "event"
    },
    {
      "anonymous": false,
      "inputs": [
        {
          "indexed": true,
          "internalType": "address",
          "name": "from",
          "type": "address"
        },
        {
          "indexed": true,
          "internalType": "address",
          "name": "to",
          "type": "address"
        },
        {
          "indexed": false,
          "internalType": "uint256",
          "name": "value",
          "type": "uint256"
        }
      ],
      "name": "Transfer",
      "type": "event"
    },
    {
      "inputs": [
        {
          "internalType": "address",
          "name": "owner",
          "type": "address"
        },
        {
          "internalType": "address",
          "name": "spender",
          "type": "address"
        }
      ],
      "name": "allowance",
      "outputs": [
        {
          "internalType": "uint256",
          "name": "",
          "type": "uint256"
        }
      ],
      "stateMutability": "view",
      "type": "function"
    },
    {
      "inputs": [
        {
          "internalType": "address",
          "name": "spender",
          "type": "address"
        },
        {
          "internalType": "uint256",
          "name": "value",
          "type": "uint256"
        }
      ],
      "name": "approve",
      "outputs": [
        {
          "internalType": "bool",
          "name": "",
          "type": "bool"
        }
      ],
      "stateMutability": "nonpayable",
      "type": "function"
    },
    {
      "inputs": [
        {
          "internalType": "address",
          "name": "account",
          "type": "address"
        }
      ],
      "name": "balanceOf",
      "outputs": [
        {
          "internalType": "uint256",
          "name": "",
          "type": "uint256"
        }
      ],
      "stateMutability": "view",
      "type": "function"
    },
    {
      "inputs": [],
      "name": "decimals",
      "outputs": [
        {
          "internalType": "uint8",
          "name": "",
          "type": "uint8"
        }
      ],
      "stateMutability": "view",
      "type": "function"
    },
    {
      "inputs": [],
      "name": "getCandidateAddresses",
      "outputs": [
        {
          "internalType": "address[]",
          "name": "",
          "type": "address[]"
        }
      ],
      "stateMutability": "view",
      "type": "function"
    },
    {
      "inputs": [],
      "name": "getRemainingTime",
      "outputs": [
        {
          "internalType": "uint256",
          "name": "",
          "type": "uint256"
        }
      ],
      "stateMutability": "view",
      "type": "function"
    },
    {
      "inputs": [],
      "name": "getVotingResults",
      "outputs": [
        {
          "internalType": "uint256[]",
          "name": "",
          "type": "uint256[]"
        }
      ],
      "stateMutability": "view",
      "type": "function"
    },
    {
      "inputs": [],
      "name": "getVotingStatus",
      "outputs": [
        {
          "internalType": "bool",
          "name": "",
          "type": "bool"
        }
      ],
      "stateMutability": "view",
      "type": "function"
    },
    {
      "inputs": [
        {
          "internalType": "address",
          "name": "to",
          "type": "address"
        }
      ],
      "name": "giveRightToVote",
      "outputs": [],
      "stateMutability": "nonpayable",
      "type": "function"
    },
    {
      "inputs": [
        {
          "internalType": "address",
          "name": "voter",
          "type": "address"
        }
      ],
      "name": "hasVoted",
      "outputs": [
        {
          "internalType": "bool",
          "name": "",
          "type": "bool"
        }
      ],
      "stateMutability": "view",
      "type": "function"
    },
    {
      "inputs": [],
      "name": "isOwner",
      "outputs": [
        {
          "internalType": "bool",
          "name": "",
          "type": "bool"
        }
      ],
      "stateMutability": "view",
      "type": "function"
    },
    {
      "inputs": [],
      "name": "name",
      "outputs": [
        {
          "internalType": "string",
          "name": "",
          "type": "string"
        }
      ],
      "stateMutability": "view",
      "type": "function"
    },
    {
      "inputs": [],
      "name": "setVoteResults",
      "outputs": [],
      "stateMutability": "nonpayable",
      "type": "function"
    },
    {
      "inputs": [],
      "name": "symbol",
      "outputs": [
        {
          "internalType": "string",
          "name": "",
          "type": "string"
        }
      ],
      "stateMutability": "view",
      "type": "function"
    },
    {
      "inputs": [],
      "name": "totalSupply",
      "outputs": [
        {
          "internalType": "uint256",
          "name": "",
          "type": "uint256"
        }
      ],
      "stateMutability": "view",
      "type": "function"
    },
    {
      "inputs": [
        {
          "internalType": "address",
          "name": "to",
          "type": "address"
        },
        {
          "internalType": "uint256",
          "name": "value",
          "type": "uint256"
        }
      ],
      "name": "transfer",
      "outputs": [
        {
          "internalType": "bool",
          "name": "",
          "type": "bool"
        }
      ],
      "stateMutability": "nonpayable",
      "type": "function"
    },
    {
      "inputs": [
        {
          "internalType": "address",
          "name": "from",
          "type": "address"
        },
        {
          "internalType": "address",
          "name": "to",
          "type": "address"
        },
        {
          "internalType": "uint256",
          "name": "value",
          "type": "uint256"
        }
      ],
      "name": "transferFrom",
      "outputs": [
        {
          "internalType": "bool",
          "name": "",
          "type": "bool"
        }
      ],
      "stateMutability": "nonpayable",
      "type": "function"
    },
    {
      "inputs": [
        {
          "internalType": "uint256",
          "name": "index",
          "type": "uint256"
        }
      ],
      "name": "vote",
      "outputs": [
        {
          "internalType": "bool",
          "name": "",
          "type": "bool"
        }
      ],
      "stateMutability": "nonpayable",
      "type": "function"
    },
    {
      "inputs": [
        {
          "internalType": "address",
          "name": "",
          "type": "address"
        }
      ],
      "name": "voters",
      "outputs": [
        {
          "internalType": "bool",
          "name": "",
          "type": "bool"
        }
      ],
      "stateMutability": "view",
      "type": "function"
    },
    {
      "inputs": [],
      "name": "votingEnd",
      "outputs": [
        {
          "internalType": "uint256",
          "name": "",
          "type": "uint256"
        }
      ],
      "stateMutability": "view",
      "type": "function"
    },
    {
      "inputs": [
        {
          "internalType": "uint256",
          "name": "",
          "type": "uint256"
        }
      ],
      "name": "votingResults",
      "outputs": [
        {
          "internalType": "uint256",
          "name": "",
          "type": "uint256"
        }
      ],
      "stateMutability": "view",
      "type": "function"
    },
    {
      "inputs": [],
      "name": "votingStart",
      "outputs": [
        {
          "internalType": "uint256",
          "name": "",
          "type": "uint256"
        }
      ],
      "stateMutability": "view",
      "type": "function"
    }
  ],
  "bytecode": "0x60806040523480156200001157600080fd5b50604051620028f9380380620028f98339818101604052810190620000379190620007ff565b6040518060400160405280600b81526020017f566f74696e67546f6b656e0000000000000000000000000000000000000000008152506040518060400160405280600381526020017f56544b00000000000000000000000000000000000000000000000000000000008152508160039081620000b4919062000ada565b508060049081620000c6919062000ada565b5050506200010933620000de6200021460201b60201c565b60ff16600a620000ef919062000d44565b6064620000fd919062000d95565b6200021960201b60201c565b33600560006101000a81548173ffffffffffffffffffffffffffffffffffffffff021916908373ffffffffffffffffffffffffffffffffffffffff16021790555042600a81905550603c8162000160919062000d95565b426200016d919062000de0565b600b8190555081600890805190602001906200018b929190620004d6565b50815167ffffffffffffffff811115620001aa57620001a962000600565b5b604051908082528060200260200182016040528015620001d95781602001602082028036833780820191505090505b5060099080519060200190620001f192919062000565565b5082600790805190602001906200020a929190620004d6565b5050505062000eb4565b600090565b600073ffffffffffffffffffffffffffffffffffffffff168273ffffffffffffffffffffffffffffffffffffffff16036200028e5760006040517fec442f0500000000000000000000000000000000000000000000000000000000815260040162000285919062000e2c565b60405180910390fd5b620002a260008383620002a660201b60201c565b5050565b600073ffffffffffffffffffffffffffffffffffffffff168373ffffffffffffffffffffffffffffffffffffffff1603620002fc578060026000828254620002ef919062000de0565b92505081905550620003d2565b60008060008573ffffffffffffffffffffffffffffffffffffffff1673ffffffffffffffffffffffffffffffffffffffff168152602001908152602001600020549050818110156200038b578381836040517fe450d38c000000000000000000000000000000000000000000000000000000008152600401620003829392919062000e5a565b60405180910390fd5b8181036000808673ffffffffffffffffffffffffffffffffffffffff1673ffffffffffffffffffffffffffffffffffffffff16815260200190815260200160002081905550505b600073ffffffffffffffffffffffffffffffffffffffff168273ffffffffffffffffffffffffffffffffffffffff16036200041d57806002600082825403925050819055506200046a565b806000808473ffffffffffffffffffffffffffffffffffffffff1673ffffffffffffffffffffffffffffffffffffffff168152602001908152602001600020600082825401925050819055505b8173ffffffffffffffffffffffffffffffffffffffff168373ffffffffffffffffffffffffffffffffffffffff167fddf252ad1be2c89b69c2b068fc378daa952ba7f163c4a11628f55a4df523b3ef83604051620004c9919062000e97565b60405180910390a3505050565b82805482825590600052602060002090810192821562000552579160200282015b82811115620005515782518260006101000a81548173ffffffffffffffffffffffffffffffffffffffff021916908373ffffffffffffffffffffffffffffffffffffffff16021790555091602001919060010190620004f7565b5b509050620005619190620005b7565b5090565b828054828255906000526020600020908101928215620005a4579160200282015b82811115620005a357825182559160200191906001019062000586565b5b509050620005b39190620005b7565b5090565b5b80821115620005d2576000816000905550600101620005b8565b5090565b6000604051905090565b600080fd5b600080fd5b600080fd5b6000601f19601f8301169050919050565b7f4e487b7100000000000000000000000000000000000000000000000000000000600052604160045260246000fd5b6200063a82620005ef565b810181811067ffffffffffffffff821117156200065c576200065b62000600565b5b80604052505050565b600062000671620005d6565b90506200067f82826200062f565b919050565b600067ffffffffffffffff821115620006a257620006a162000600565b5b602082029050602081019050919050565b600080fd5b600073ffffffffffffffffffffffffffffffffffffffff82169050919050565b6000620006e582620006b8565b9050919050565b620006f781620006d8565b81146200070357600080fd5b50565b6000815190506200071781620006ec565b92915050565b6000620007346200072e8462000684565b62000665565b905080838252602082019050602084028301858111156200075a5762000759620006b3565b5b835b8181101562000787578062000772888262000706565b8452602084019350506020810190506200075c565b5050509392505050565b600082601f830112620007a957620007a8620005ea565b5b8151620007bb8482602086016200071d565b91505092915050565b6000819050919050565b620007d981620007c4565b8114620007e557600080fd5b50565b600081519050620007f981620007ce565b92915050565b6000806000606084860312156200081b576200081a620005e0565b5b600084015167ffffffffffffffff8111156200083c576200083b620005e5565b5b6200084a8682870162000791565b935050602084015167ffffffffffffffff8111156200086e576200086d620005e5565b5b6200087c8682870162000791565b92505060406200088f86828701620007e8565b9150509250925092565b600081519050919050565b7f4e487b7100000000000000000000000000000000000000000000000000000000600052602260045260246000fd5b60006002820490506001821680620008ec57607f821691505b602082108103620009025762000901620008a4565b5b50919050565b60008190508160005260206000209050919050565b60006020601f8301049050919050565b600082821b905092915050565b6000600883026200096c7fffffffffffffffffffffffffffffffffffffffffffffffffffffffffffffffff826200092d565b6200097886836200092d565b95508019841693508086168417925050509392505050565b6000819050919050565b6000620009bb620009b5620009af84620007c4565b62000990565b620007c4565b9050919050565b6000819050919050565b620009d7836200099a565b620009ef620009e682620009c2565b8484546200093a565b825550505050565b600090565b62000a06620009f7565b62000a13818484620009cc565b505050565b5b8181101562000a3b5762000a2f600082620009fc565b60018101905062000a19565b5050565b601f82111562000a8a5762000a548162000908565b62000a5f846200091d565b8101602085101562000a6f578190505b62000a8762000a7e856200091d565b83018262000a18565b50505b505050565b600082821c905092915050565b600062000aaf6000198460080262000a8f565b1980831691505092915050565b600062000aca838362000a9c565b9150826002028217905092915050565b62000ae58262000899565b67ffffffffffffffff81111562000b015762000b0062000600565b5b62000b0d8254620008d3565b62000b1a82828562000a3f565b600060209050601f83116001811462000b52576000841562000b3d578287015190505b62000b49858262000abc565b86555062000bb9565b601f19841662000b628662000908565b60005b8281101562000b8c5784890151825560018201915060208501945060208101905062000b65565b8683101562000bac578489015162000ba8601f89168262000a9c565b8355505b6001600288020188555050505b505050505050565b7f4e487b7100000000000000000000000000000000000000000000000000000000600052601160045260246000fd5b60008160011c9050919050565b6000808291508390505b600185111562000c4f5780860481111562000c275762000c2662000bc1565b5b600185161562000c375780820291505b808102905062000c478562000bf0565b945062000c07565b94509492505050565b60008262000c6a576001905062000d3d565b8162000c7a576000905062000d3d565b816001811462000c93576002811462000c9e5762000cd4565b600191505062000d3d565b60ff84111562000cb35762000cb262000bc1565b5b8360020a91508482111562000ccd5762000ccc62000bc1565b5b5062000d3d565b5060208310610133831016604e8410600b841016171562000d0e5782820a90508381111562000d085762000d0762000bc1565b5b62000d3d565b62000d1d848484600162000bfd565b9250905081840481111562000d375762000d3662000bc1565b5b81810290505b9392505050565b600062000d5182620007c4565b915062000d5e83620007c4565b925062000d8d7fffffffffffffffffffffffffffffffffffffffffffffffffffffffffffffffff848462000c58565b905092915050565b600062000da282620007c4565b915062000daf83620007c4565b925082820262000dbf81620007c4565b9150828204841483151762000dd95762000dd862000bc1565b5b5092915050565b600062000ded82620007c4565b915062000dfa83620007c4565b925082820190508082111562000e155762000e1462000bc1565b5b92915050565b62000e2681620006d8565b82525050565b600060208201905062000e43600083018462000e1b565b92915050565b62000e5481620007c4565b82525050565b600060608201905062000e71600083018662000e1b565b62000e80602083018562000e49565b62000e8f604083018462000e49565b949350505050565b600060208201905062000eae600083018462000e49565b92915050565b611a358062000ec46000396000f3fe608060405234801561001057600080fd5b50600436106101425760003560e01c806385a38635116100b8578063a3ec138d1161007c578063a3ec138d14610391578063a9059cbb146103c1578063c58e9d53146103f1578063da650ec6146103fb578063dd62ed3e14610419578063efb98bcf1461044957610142565b806385a38635146102eb5780638f32d59b1461030957806395d89b41146103275780639a4f7300146103455780639e7b8d611461037557610142565b806318160ddd1161010a57806318160ddd1461021357806323b872dd14610231578063313ce56714610261578063581c281c1461027f57806370a082311461029d5780638155f736146102cd57610142565b80630121b93f1461014757806306fdde0314610177578063095ea7b31461019557806309eef43e146101c5578063101158af146101f5575b600080fd5b610161600480360381019061015c919061120e565b610467565b60405161016e9190611256565b60405180910390f35b61017f61059e565b60405161018c9190611301565b60405180910390f35b6101af60048036038101906101aa9190611381565b610630565b6040516101bc9190611256565b60405180910390f35b6101df60048036038101906101da91906113c1565b610653565b6040516101ec9190611256565b60405180910390f35b6101fd6106a9565b60405161020a91906113fd565b60405180910390f35b61021b6106af565b60405161022891906113fd565b60405180910390f35b61024b60048036038101906102469190611418565b6106b9565b6040516102589190611256565b60405180910390f35b6102696106e8565b6040516102769190611487565b60405180910390f35b6102876106ed565b6040516102949190611256565b60405180910390f35b6102b760048036038101906102b291906113c1565b610707565b6040516102c491906113fd565b60405180910390f35b6102d561074f565b6040516102e29190611560565b60405180910390f35b6102f36107dd565b60405161030091906113fd565b60405180910390f35b6103116107e3565b60405161031e9190611256565b60405180910390f35b61032f61083b565b60405161033c9190611301565b60405180910390f35b61035f600480360381019061035a919061120e565b6108cd565b60405161036c91906113fd565b60405180910390f35b61038f600480360381019061038a91906113c1565b6108f1565b005b6103ab60048036038101906103a691906113c1565b610a1d565b6040516103b89190611256565b60405180910390f35b6103db60048036038101906103d69190611381565b610a3d565b6040516103e89190611256565b60405180910390f35b6103f9610a60565b005b610403610ae9565b6040516104109190611640565b60405180910390f35b610433600480360381019061042e9190611662565b610b41565b60405161044091906113fd565b60405180910390f35b610451610bc8565b60405161045e91906113fd565b60405180910390f35b6000600660003373ffffffffffffffffffffffffffffffffffffffff1673ffffffffffffffffffffffffffffffffffffffff16815260200190815260200160002060009054906101000a900460ff16156104f6576040517f08c379a00000000000000000000000000000000000000000000000000000000081526004016104ed906116ee565b60405180910390fd5b6001600660003373ffffffffffffffffffffffffffffffffffffffff1673ffffffffffffffffffffffffffffffffffffffff16815260200190815260200160002060006101000a81548160ff021916908315150217905550610597600883815481106105655761056461170e565b5b9060005260206000200160009054906101000a900473ffffffffffffffffffffffffffffffffffffffff166001610a3d565b9050919050565b6060600380546105ad9061176c565b80601f01602080910402602001604051908101604052809291908181526020018280546105d99061176c565b80156106265780601f106105fb57610100808354040283529160200191610626565b820191906000526020600020905b81548152906001019060200180831161060957829003601f168201915b5050505050905090565b60008061063b610c35565b9050610648818585610c3d565b600191505092915050565b6000600660008373ffffffffffffffffffffffffffffffffffffffff1673ffffffffffffffffffffffffffffffffffffffff16815260200190815260200160002060009054906101000a900460ff169050919050565b600a5481565b6000600254905090565b6000806106c4610c35565b90506106d1858285610c4f565b6106dc858585610ce3565b60019150509392505050565b600090565b6000600a5442101580156107025750600b5442105b905090565b60008060008373ffffffffffffffffffffffffffffffffffffffff1673ffffffffffffffffffffffffffffffffffffffff168152602001908152602001600020549050919050565b606060088054806020026020016040519081016040528092919081815260200182805480156107d357602002820191906000526020600020905b8160009054906101000a900473ffffffffffffffffffffffffffffffffffffffff1673ffffffffffffffffffffffffffffffffffffffff1681526020019060010190808311610789575b5050505050905090565b600b5481565b6000600560009054906101000a900473ffffffffffffffffffffffffffffffffffffffff1673ffffffffffffffffffffffffffffffffffffffff163373ffffffffffffffffffffffffffffffffffffffff1614905090565b60606004805461084a9061176c565b80601f01602080910402602001604051908101604052809291908181526020018280546108769061176c565b80156108c35780601f10610898576101008083540402835291602001916108c3565b820191906000526020600020905b8154815290600101906020018083116108a657829003601f168201915b5050505050905090565b600981815481106108dd57600080fd5b906000526020600020016000915090505481565b3373ffffffffffffffffffffffffffffffffffffffff16600560009054906101000a900473ffffffffffffffffffffffffffffffffffffffff1673ffffffffffffffffffffffffffffffffffffffff1614610981576040517f08c379a00000000000000000000000000000000000000000000000000000000081526004016109789061180f565b60405180910390fd5b600660008273ffffffffffffffffffffffffffffffffffffffff1673ffffffffffffffffffffffffffffffffffffffff16815260200190815260200160002060009054906101000a900460ff1615610a0e576040517f08c379a0000000000000000000000000000000000000000000000000000000008152600401610a059061187b565b60405180910390fd5b610a19816001610a3d565b5050565b60066020528060005260406000206000915054906101000a900460ff1681565b600080610a48610c35565b9050610a55818585610ce3565b600191505092915050565b60005b600880549050811015610ae657610ab760088281548110610a8757610a8661170e565b5b9060005260206000200160009054906101000a900473ffffffffffffffffffffffffffffffffffffffff16610707565b60098281548110610acb57610aca61170e565b5b90600052602060002001819055508080600101915050610a63565b50565b60606009805480602002602001604051908101604052809291908181526020018280548015610b3757602002820191906000526020600020905b815481526020019060010190808311610b23575b5050505050905090565b6000600160008473ffffffffffffffffffffffffffffffffffffffff1673ffffffffffffffffffffffffffffffffffffffff16815260200190815260200160002060008373ffffffffffffffffffffffffffffffffffffffff1673ffffffffffffffffffffffffffffffffffffffff16815260200190815260200160002054905092915050565b6000600a54421015610c0f576040517f08c379a0000000000000000000000000000000000000000000000000000000008152600401610c06906118e7565b60405180910390fd5b600b544210610c215760009050610c32565b42600b54610c2f9190611936565b90505b90565b600033905090565b610c4a8383836001610dd7565b505050565b6000610c5b8484610b41565b90507fffffffffffffffffffffffffffffffffffffffffffffffffffffffffffffffff8114610cdd5781811015610ccd578281836040517ffb8f41b2000000000000000000000000000000000000000000000000000000008152600401610cc493929190611979565b60405180910390fd5b610cdc84848484036000610dd7565b5b50505050565b600073ffffffffffffffffffffffffffffffffffffffff168373ffffffffffffffffffffffffffffffffffffffff1603610d555760006040517f96c6fd1e000000000000000000000000000000000000000000000000000000008152600401610d4c91906119b0565b60405180910390fd5b600073ffffffffffffffffffffffffffffffffffffffff168273ffffffffffffffffffffffffffffffffffffffff1603610dc75760006040517fec442f05000000000000000000000000000000000000000000000000000000008152600401610dbe91906119b0565b60405180910390fd5b610dd2838383610fae565b505050565b600073ffffffffffffffffffffffffffffffffffffffff168473ffffffffffffffffffffffffffffffffffffffff1603610e495760006040517fe602df05000000000000000000000000000000000000000000000000000000008152600401610e4091906119b0565b60405180910390fd5b600073ffffffffffffffffffffffffffffffffffffffff168373ffffffffffffffffffffffffffffffffffffffff1603610ebb5760006040517f94280d62000000000000000000000000000000000000000000000000000000008152600401610eb291906119b0565b60405180910390fd5b81600160008673ffffffffffffffffffffffffffffffffffffffff1673ffffffffffffffffffffffffffffffffffffffff16815260200190815260200160002060008573ffffffffffffffffffffffffffffffffffffffff1673ffffffffffffffffffffffffffffffffffffffff168152602001908152602001600020819055508015610fa8578273ffffffffffffffffffffffffffffffffffffffff168473ffffffffffffffffffffffffffffffffffffffff167f8c5be1e5ebec7d5bd14f71427d1e84f3dd0314c0f7b2291e5b200ac8c7c3b92584604051610f9f91906113fd565b60405180910390a35b50505050565b600073ffffffffffffffffffffffffffffffffffffffff168373ffffffffffffffffffffffffffffffffffffffff1603611000578060026000828254610ff491906119cb565b925050819055506110d3565b60008060008573ffffffffffffffffffffffffffffffffffffffff1673ffffffffffffffffffffffffffffffffffffffff1681526020019081526020016000205490508181101561108c578381836040517fe450d38c00000000000000000000000000000000000000000000000000000000815260040161108393929190611979565b60405180910390fd5b8181036000808673ffffffffffffffffffffffffffffffffffffffff1673ffffffffffffffffffffffffffffffffffffffff16815260200190815260200160002081905550505b600073ffffffffffffffffffffffffffffffffffffffff168273ffffffffffffffffffffffffffffffffffffffff160361111c5780600260008282540392505081905550611169565b806000808473ffffffffffffffffffffffffffffffffffffffff1673ffffffffffffffffffffffffffffffffffffffff168152602001908152602001600020600082825401925050819055505b8173ffffffffffffffffffffffffffffffffffffffff168373ffffffffffffffffffffffffffffffffffffffff167fddf252ad1be2c89b69c2b068fc378daa952ba7f163c4a11628f55a4df523b3ef836040516111c691906113fd565b60405180910390a3505050565b600080fd5b6000819050919050565b6111eb816111d8565b81146111f657600080fd5b50565b600081359050611208816111e2565b92915050565b600060208284031215611224576112236111d3565b5b6000611232848285016111f9565b91505092915050565b60008115159050919050565b6112508161123b565b82525050565b600060208201905061126b6000830184611247565b92915050565b600081519050919050565b600082825260208201905092915050565b60005b838110156112ab578082015181840152602081019050611290565b60008484015250505050565b6000601f19601f8301169050919050565b60006112d382611271565b6112dd818561127c565b93506112ed81856020860161128d565b6112f6816112b7565b840191505092915050565b6000602082019050818103600083015261131b81846112c8565b905092915050565b600073ffffffffffffffffffffffffffffffffffffffff82169050919050565b600061134e82611323565b9050919050565b61135e81611343565b811461136957600080fd5b50565b60008135905061137b81611355565b92915050565b60008060408385031215611398576113976111d3565b5b60006113a68582860161136c565b92505060206113b7858286016111f9565b9150509250929050565b6000602082840312156113d7576113d66111d3565b5b60006113e58482850161136c565b91505092915050565b6113f7816111d8565b82525050565b600060208201905061141260008301846113ee565b92915050565b600080600060608486031215611431576114306111d3565b5b600061143f8682870161136c565b93505060206114508682870161136c565b9250506040611461868287016111f9565b9150509250925092565b600060ff82169050919050565b6114818161146b565b82525050565b600060208201905061149c6000830184611478565b92915050565b600081519050919050565b600082825260208201905092915050565b6000819050602082019050919050565b6114d781611343565b82525050565b60006114e983836114ce565b60208301905092915050565b6000602082019050919050565b600061150d826114a2565b61151781856114ad565b9350611522836114be565b8060005b8381101561155357815161153a88826114dd565b9750611545836114f5565b925050600181019050611526565b5085935050505092915050565b6000602082019050818103600083015261157a8184611502565b905092915050565b600081519050919050565b600082825260208201905092915050565b6000819050602082019050919050565b6115b7816111d8565b82525050565b60006115c983836115ae565b60208301905092915050565b6000602082019050919050565b60006115ed82611582565b6115f7818561158d565b93506116028361159e565b8060005b8381101561163357815161161a88826115bd565b9750611625836115d5565b925050600181019050611606565b5085935050505092915050565b6000602082019050818103600083015261165a81846115e2565b905092915050565b60008060408385031215611679576116786111d3565b5b60006116878582860161136c565b92505060206116988582860161136c565b9150509250929050565b7f596f75206861766520616c726561647920766f7465642e000000000000000000600082015250565b60006116d860178361127c565b91506116e3826116a2565b602082019050919050565b60006020820190508181036000830152611707816116cb565b9050919050565b7f4e487b7100000000000000000000000000000000000000000000000000000000600052603260045260246000fd5b7f4e487b7100000000000000000000000000000000000000000000000000000000600052602260045260246000fd5b6000600282049050600182168061178457607f821691505b6020821081036117975761179661173d565b5b50919050565b7f4f6e6c79206f776e65722063616e207461726e7366657220746f6b656e73207460008201527f6f20656c696769626c6520766f746572732e0000000000000000000000000000602082015250565b60006117f960328361127c565b91506118048261179d565b604082019050919050565b60006020820190508181036000830152611828816117ec565b9050919050565b7f5468697320766f746572206861766520616c726561647920766f7465642e0000600082015250565b6000611865601e8361127c565b91506118708261182f565b602082019050919050565b6000602082019050818103600083015261189481611858565b9050919050565b7f566f74696e6720686173206e6f742073746172746564207965742e0000000000600082015250565b60006118d1601b8361127c565b91506118dc8261189b565b602082019050919050565b60006020820190508181036000830152611900816118c4565b9050919050565b7f4e487b7100000000000000000000000000000000000000000000000000000000600052601160045260246000fd5b6000611941826111d8565b915061194c836111d8565b925082820390508181111561196457611963611907565b5b92915050565b61197381611343565b82525050565b600060608201905061198e600083018661196a565b61199b60208301856113ee565b6119a860408301846113ee565b949350505050565b60006020820190506119c5600083018461196a565b92915050565b60006119d6826111d8565b91506119e1836111d8565b92508282019050808211156119f9576119f8611907565b5b9291505056fea26469706673582212203bdd5f276dedb68f0ebc1a364866254e043ebab9c7ef32a989e0c205ac5744a064736f6c63430008180033",
  "linkReferences": {},
  "deployedLinkReferences": {}
}